:100000000C9465000C948D000C948D000C948D0064
:100010000C948D000C948D000C948D000C948D002C
:100020000C948D000C948D000C948D000C948D001C
:100030000C948D000C948D000C948D000C948D000C
:100040000C94240A0C948D000C948D000C948D005B
:100050000C948D000C948D000C948D000C948D00EC
:100060000C948D000C948D00CC00D500E000E900CC
:10007000F200F90004010000000800020100000382
:100080000407000000000000000001020408102026
:10009000408001020408102001020408102004041A
:1000A0000404040404040202020202020303030320
:1000B000030300000000250028002B0000000000C2
:1000C000240027002A008801A00211241FBECFEFC0
:1000D000D8E0DEBFCDBF11E0A0E0B1E0ECE6FBE18F
:1000E00002C005900D92A431B107D9F723E0A4E135
:1000F000B1E001C01D92AC35B207E1F710E0C8ECE9
:10010000D0E004C02297FE010E94F80BC63CD10744
:10011000C9F70E94130A0C94A90D0C9400001092C8
:1001200017011092160180E193E00E94FA0281ED1E
:1001300092E00E94FA0282E992E00E94FA0283E5CC
:1001400092E00E94FA0284E192E00E94FA0285EDB8
:1001500091E00E94FA0286E991E00E94FA0287E5A6
:1001600091E00E94FA0288E191E00C94FA02E09199
:100170001401F09115013197E730F10520F4EC5CA2
:10018000FF4F0C94F60B609116017091170188E1F6
:1001900091E00E94D50340C0609116017091170153
:1001A00088E191E00E94150537C0609116017091B9
:1001B000170144E650E088E191E00E941A062CC045
:1001C000609116017091170188E191E00E941B0473
:1001D00023C0609116017091170188E191E00E949F
:1001E000A4061AC066E070E088E191E00E948C03EA
:1001F00013C0609116017091170144E650E088E148
:1002000091E00E94960508C0609116017091170157
:1002100088E191E00E9488046091160170911701B5
:1002200080E193E00E94D50360911601709117015F
:1002300081ED92E00E941505609116017091170101
:1002400044E650E082E992E00E941A0660911601AD
:100250007091170183E592E00E941B0460911601E2
:100260007091170184E192E00E94A406609116014A
:100270007091170185ED91E00E948C036091160149
:100280007091170186E991E00E948804609116013F
:100290007091170144E650E087E591E00C949605D3
:1002A000809116019091170120910A0130910B0164
:1002B000820F931F883823E192072CF49093170143
:1002C0008093160104C010921701109216018091BC
:1002D000160190911701892B79F480911401909166
:1002E000150101969093150180931401089721F44C
:1002F00010921501109214010E94B70060910A013A
:1003000070910B01882777FD8095982F0C94910AA6
:10031000CF93DF93CDB7DEB765970FB6F894DEBF06
:100320000FBECDBF22E530E042E068E070E08AE336
:1003300093E00E94BF0885E1EAE3F3E0DE01119655
:1003400001900D928A95E1F7BE016F5F7F4F80E1CA
:1003500093E00E943E03CE0101960E94330722E5FE
:1003600030E043E068E070E08BEF92E00E94BF086D
:1003700085E1EBEFF2E0DE01119601900D928A9596
:10038000E1F7BE016F5F7F4F81ED92E00E943E0377
:10039000CE0101960E94330722E530E044E068E098
:1003A00070E08CEB92E00E94BF0885E1ECEBF2E09C
:1003B000DE01119601900D928A95E1F7BE016F5F03
:1003C0007F4F82E992E00E943E03CE0101960E9497
:1003D000330722E530E045E068E070E08DE792E029
:1003E0000E94BF0885E1EDE7F2E0DE011196019081
:1003F0000D928A95E1F7BE016F5F7F4F83E592E032
:100400000E943E03CE0101960E94330722E530E0B0
:1004100046E068E070E08EE392E00E94BF0885E16C
:10042000EEE3F2E0DE01119601900D928A95E1F77C
:10043000BE016F5F7F4F84E192E00E943E03CE01D8
:1004400001960E94330722E530E047E068E070E063
:100450008FEF91E00E94BF0885E1EFEFF1E0DE0150
:10046000119601900D928A95E1F7BE016F5F7F4F63
:1004700085ED91E00E943E03CE0101960E94330774
:1004800022E530E048E068E070E080EC91E00E9416
:10049000BF0885E1E0ECF1E0DE01119601900D92DC
:1004A0008A95E1F7BE016F5F7F4F86E991E00E9478
:1004B0003E03CE0101960E94330722E530E049E079
:1004C00068E070E081E891E00E94BF0885E1E1E822
:1004D000F1E0DE01119601900D928A95E1F7BE01DF
:1004E0006F5F7F4F87E591E00E943E03CE0101964A
:1004F0000E94330722E530E04CE068E070E082E4DF
:1005000091E00E94BF0885E1E2E4F1E0DE0111968E
:1005100001900D928A95E1F7BE016F5F7F4F88E1F0
:1005200091E00E943E03CE0101960E94330765963A
:100530000FB6F894DEBF0FBECDBFDF91CF91089507
:1005400088E191E00E94E80282E491E00E94330792
:1005500087E591E00E94E80281E891E00E9433077C
:1005600086E991E00E94E80280EC91E00E94330766
:1005700085ED91E00E94E8028FEF91E00E94330741
:1005800084E192E00E94E8028EE392E00E94330749
:1005900083E592E00E94E8028DE792E00E94330733
:1005A00082E992E00E94E8028CEB92E00E9433071D
:1005B00081ED92E00E94E8028BEF92E00E94330707
:1005C00080E193E00E94E8028AE393E00C94330711
:1005D00020E131E0FC013183208345960C94330700
:1005E000CF93DF93EC010E94E802CE01DF91CF911F
:1005F0000C94220ACF93DF93EC0165966FEFCE0146
:100600000E94AD09CE010E944707CE01DF91CF9134
:100610000C94CB076130710539F06230710541F0FF
:1006200040E060E08FEF07C04FEF60E080E003C084
:1006300040EC60EC80EC0C94A009862F40E060E078
:100640000C94A009CF93DF93EC0118861A861986C3
:1006500082E090E09E878D876FEF70E0CE010E9470
:100660001D03698B7A8B8B8B9C8BCE0145960E94E8
:10067000A9099B838A83DF91CF910895EF92FF921E
:100680000F931F93CF93DF93EC017B0180E191E007
:100690009983888381E090E09D838C831F821E82F2
:1006A0008BE090E09C878B871E861D86188A1F86AC
:1006B0008E010B5E1F4FC8010E941C0785E1F701E8
:1006C000D80101900D928A95E1F7CE01DF91CF918B
:1006D0001F910F91FF90EF900C9422036095653568
:1006E00038F4862F880F860F482F60E0809512C05F
:1006F0006A3A48F48BEA860F682F660F680F462F18
:10070000409580E007C06A5A862F880F860F682FB1
:10071000609540E00C94A009BF92CF92DF92EF92D7
:10072000FF920F931F93CF93DF93EC0189859A85F6
:1007300008968F3F910509F01CF49A87898702C0BB
:100740001A861986C12CD12CE12CF12C8E010B5E5E
:100750001F4FC8010E94A909E816F906D0F4B98410
:10076000C8010E94A909BC01C6010E948D0B6B0D36
:10077000CE010E946E039B01AC01B701C8010E942B
:100780003B098FEFE81AF80A8EE3C81A8EEFD80AF1
:10079000E0CFC801DF91CF911F910F91FF90EF90B3
:1007A000DF90CF90BF900C94CB07BF92CF92DF9297
:1007B000EF92FF920F931F93CF93DF93EC01898504
:1007C0009A8504968F3F910509F01CF49A878987D2
:1007D00002C01A861986C12CD12CE12CF12C8E0175
:1007E0000B5E1F4FC8010E94A909E816F906B8F46C
:1007F000B984C8010E94A909BC01C6010E948D0BE1
:100800006B0DCE010E946E039B01AC01B701C801C4
:100810000E943B098FEFE81AF80AD394E3CFC8018E
:10082000DF91CF911F910F91FF90EF90DF90CF90CC
:10083000BF900C94CB07CF92DF92EF92FF920F9371
:10084000CF93DF93EC01CB0164E670E00E94A10B33
:10085000892B09F055C0CD84DE847E0185E1E80E48
:10086000F11CC7010E94A909C816D906C1F41E8649
:100870001D8649895A896B897C89405F5F4F6F4F1C
:100880007F4F498B5A8B6B8B7C8B4F3F510561059A
:10089000710529F020F0198A1A8A1B8A1C8AC12C3A
:1008A000D12CC7010E94A9092D853E85C816D906FD
:1008B000C8F42C153D055CF06989CE010E946E03D9
:1008C0009B01AC01B601C7010E943B0907C000E0D3
:1008D00020E040E0B601C7010E94E7088FEFC81A88
:1008E000D80ADFCF2F5F3F4F3E872D87C701DF91AB
:1008F000CF910F91FF90EF90DF90CF900C94CB07AA
:10090000DF91CF910F91FF90EF90DF90CF900895FE
:10091000CF92DF92EF92FF920F93CF93DF93EC0190
:10092000CB0164E670E00E94A10B892B09F067C03F
:100930007E0185E1E80EF11CC7010E94A909969588
:10094000879501962D853E8528173907C1F41E86A7
:100950001D8649895A896B897C89405F5F4F6F4F3B
:100960007F4F498B5A8B6B8B7C8B4F3F51056105B9
:10097000710529F020F0198A1A8A1B8A1C8AC12C59
:10098000D12CC7010E94A9092D853E85C816D9061C
:1009900070F42C153D05CCF4C7010E94A9092D85E2
:1009A0003E85821B930BC816D90678F420C02F5FB2
:1009B0003F4F3E872D87C701DF91CF910F91FF9069
:1009C000EF90DF90CF900C94CB076C2D660F660FE5
:1009D0008989680FCE010E946E039B01AC01B601AC
:1009E000C7010E943B098FEFC81AD80ACACF00E09E
:1009F00020E040E0B601C7010E94E708F4CFDF9194
:100A0000CF910F91FF90EF90DF90CF900895CF930B
:100A1000DF93EC0160E071E080E090E00E94EE097D
:100A2000CE01DF91CF910C946E03AF92BF92CF9223
:100A3000DF92EF92FF920F93CF93DF9300D0CDB769
:100A4000DEB75C01CB0162E370E00E94A10B892B51
:100A500009F060C0F501C584D6847501F5E1EF0E9B
:100A6000F11CC7010E94A909C816D90669F4F5014D
:100A7000168615866FEF70E0C5010E940705F50127
:100A8000618B728B838B948B60E070E0C70169830C
:100A90007A830E94A909F5012585368569817A81C5
:100AA0006817790728F5CB0101966C016217730767
:100AB00029F0215031096217730791F4F50121895A
:100AC000328943895489C7010E943B09F501218974
:100AD000328943895489B601C7010E943B0906C087
:100AE00000E020E040E0C7010E94E708B601CECF59
:100AF0002F5F3F4F36872587C7010F900F90DF91FB
:100B0000CF910F91FF90EF90DF90CF90BF90AF907B
:100B10000C94CB070F900F90DF91CF910F91FF9026
:100B2000EF90DF90CF90BF90AF900895AF92BF92BB
:100B3000CF92DF92EF92FF920F93CF93DF93EC016E
:100B4000CB01BA010E94A10B892B09F069C06E018B
:100B500085E1C80ED11CC6010E94A909BC0180E034
:100B600090E00E94EE097E876D87C6010E94A90968
:100B7000BC0180E090E00E94EE09788B6F87C6018F
:100B80000E94A909BC0180E090E00E94EE095B018F
:100B900089859A8504968F3F910509F01CF49A8700
:100BA000898702C01A861986E12CF12CC6010E94A1
:100BB000A9092D853E85E816F90610F5E216F3061B
:100BC00041F08F859889E816F90619F0EA14FB04BC
:100BD00061F46FEF70E0CE010E9407059B01AC014C
:100BE000B701C6010E943B0907C000E020E040E0D9
:100BF000B701C6010E94E7088FEFE81AF80AD6CFBE
:100C00002F5F3F4F3E872D87C601DF91CF910F9118
:100C1000FF90EF90DF90CF90BF90AF900C94CB07F8
:100C2000DF91CF910F91FF90EF90DF90CF90BF9029
:100C3000AF9008956F927F928F929F92AF92BF92E2
:100C4000CF92DF92EF92FF920F93CF93DF936C01DD
:100C5000CB01BA010E94A10B892B09F067C0760174
:100C600085E1E80EF11CC7010E94A909BC0180E0E2
:100C700090E00E94EE093B01C7010E94A909BC0156
:100C800080E090E00E94EE095B01C7010E94A90983
:100C9000BC0180E090E00E94EE094B01F6018185E5
:100CA000928504968F3F910509F01CF49287818705
:100CB00003C0F60112861186C0E0D0E0C7010E9491
:100CC000A909C817D90710F5C615D70531F0CA15F7
:100CD000DB0519F0C815D90581F463E070E080E008
:100CE00090E00E94EE09C6010E940A039B01AC013C
:100CF000BE01C7010E943B0907C000E020E040E0C0
:100D0000BE01C7010E94E7082196D8CFC701DF9135
:100D1000CF910F91FF90EF90DF90CF90BF90AF9069
:100D20009F908F907F906F900C94CB07DF91CF9125
:100D30000F91FF90EF90DF90CF90BF90AF909F907A
:100D40008F907F906F900895CF92DF92EF92FF92F5
:100D50000F93CF93DF93EC01CB0162E370E00E942D
:100D6000A10B892B09F060C089859A8504968F3F75
:100D7000910509F01CF49A87898702C01A861986A2
:100D8000CD84DE847E0185E1E80EF11CC7010E945E
:100D9000A90996958795C816D90651F41E861D8611
:100DA0006985CE010E946E03698B7A8B8B8B9C8B3D
:100DB000C12CD12CC7010E94A9092D853E85C816DA
:100DC000D90680F4C216D306D9F0C7010E94A9093A
:100DD000969587952D853E85820F931FC816D90657
:100DE000D9F40EC02F5F3F4F3E872D87C701DF919B
:100DF000CF910F91FF90EF90DF90CF900C94CB07A5
:100E000029893A894B895C89B601C7010E943B094F
:100E10008FEFC81AD80ACECF00E020E040E0B6013C
:100E2000C7010E94E708F4CFDF91CF910F91FF90A7
:100E3000EF90DF90CF900895FC0181E080831182D4
:100E400013821282158214829FEF96831782118675
:100E500010868287138692E0948785871686178688
:100E6000108A118A0895CF93DF93EC0188859985C4
:100E7000009711F00E94AE0C8E8187FD05C060E0E6
:100E8000DF91CF910C941D0BDF91CF910895CF93FB
:100E9000DF93EC018E8187FD07C061E00E941D0B8E
:100EA00060E08E810E94560B81E08983DF91CF91B3
:100EB0000895EF92FF920F931F93CF93DF93EC016E
:100EC0007B0188859985009711F00E94AE0C9D8565
:100ED0008A85981303C083E090E002C084E090E02C
:100EE0008E9D80018F9D100D9E9D100D11241D83E0
:100EF0000C83C8010E94160C99878887009741F0DF
:100F0000A80160E070E00E949A0DFB82EA8204C0B2
:100F10001D821C821B821A82DF91CF911F910F913B
:100F2000FF90EF900895FC0121E09585828598134C
:100F300020E0CB0136E0969587953A95E1F7482F6A
:100F400043704587CB0154E0969587955A95E1F714
:100F5000382F33703287CB01969587959695879574
:100F600083708387862F8370848781E06F3F71054C
:100F700011F008F080E0808380859185892B51F005
:100F800091E0431390E0921729F062817381CF01C1
:100F90000C9459070895CF92DF92EF92FF920F932E
:100FA0001F93CF93DF93CDB7DEB729970FB6F89491
:100FB000DEBF0FBECDBF8C01DC0118968D919C91D8
:100FC0001997892B09F49AC00E946E0AF801C68409
:100FD000D784E088F1886C197D098E099F096233F6
:100FE00071058105910580F3F894848195819A8338
:100FF0008983A085B1857D01EFEFEE1AFE0A8C9101
:101000008987D8019C9152960D90BC91A02DF80132
:101010008489992309F42EC09C91982B98879C91E0
:10102000809589238F838F818E8388E08D83588577
:101030006F8149853D812E8189819A81F7015C9379
:1010400047FD252F3A952C93262F39F0441F00C0D9
:1010500000006C93000000C0F2CF38E041916C9327
:101060000000019761F7F801B38BA28B49873D839C
:101070002E8338C09C91982B98879C9180958923CA
:101080008F838F818C8388E08B8358856F8149851E
:101090003B812C8189819A81F7015C9347FD252F43
:1010A00000C000C02C9300C000C000C000C000C041
:1010B0006C930000262F3A9541F0441F000000C0B9
:1010C00000C000C000C000C0E8CF38E0419100C0BF
:1010D0006C9300C0019709F7F801B38BA28B498785
:1010E0003B832C839A83898378940E946E0AD8016B
:1010F0001E966D937D938D939C93519729960FB671
:10110000F894DEBF0FBECDBFDF91CF911F910F913D
:10111000FF90EF90DF90CF9008951F93CF93DF93D0
:10112000EC01162F8981882331F08E8187FD03C061
:1011300060E00E941D0B1E838981882341F061E0DD
:10114000812F0E941D0B60E0812F0E94560B812F82
:1011500090E0FC01E256FF4FE491F0E0EE0FFF1F3C
:10116000EE54FF4F259134913B8B2A8BFC01E657BF
:10117000FF4F84918C8BDF91CF911F910895EF9257
:10118000FF920F931F93CF93DF931F92CDB7DEB7DC
:101190007C018B01FC011182178211861086168654
:1011A0001786108A118AB90149830E949307B801F2
:1011B000C7010E9459074981642FC7010F90DF9131
:1011C000CF911F910F91FF90EF900C948D080F938A
:1011D0001F93CF93DF93DC0112968D919C9113970F
:1011E0006817790708F042C017968C9117978823E3
:1011F00061F0489FA0011124452F289F90011124E0
:10120000232F089F80011124012F1D963C911D97CB
:101210001A965C911A9718968D919C911997FB01DB
:10122000351307C0EE0FFF1FE60FF71FE80FF91F7A
:101230000AC0EE0FFF1FEE0FFF1FE80FF91FEF01AF
:10124000C30FD11D18821A968C911A97EF01C80FFF
:10125000D11D48831B968C911B97EF01C80FD11DA0
:1012600028831C968C91E80FF11D0083DF91CF91AC
:101270001F910F910895CF92DF92EF92FF920F93FB
:101280001F93CF93DF93FC018281938168177907C5
:1012900008F04DC0CA01AA27BB27182FC32ED42E91
:1012A000E52EFF24DC2DC22F0781002361F0809FF3
:1012B000C0011124192FC09E60011124DD2D209F33
:1012C000C0011124C92FF5848285A085B185F8124B
:1012D00008C0CB01880F991F860F971F8A0F9B1F8D
:1012E00017C0CB01880F991F880F991F8A0F9B1F6A
:1012F000452F552766277727DC01AF0DB11D002349
:1013000029F0409F90011124232F01C0242F2C93FA
:101310002285DC01A20FB11D1C932385DC01A20FE5
:10132000B11DDC932485FC01E20FF11DC083DF9128
:10133000CF911F910F91FF90EF90DF90CF90089584
:10134000962F50E060E070E0592B682BCB01BA017A
:101350000895FC01828193810895FF920F931F935A
:10136000CF93DF93EC01FF24F394F60E2F81F21656
:1013700079F1088519852150B9F06F3F59F430E0B3
:1013800040E050E06FEF7FEF80E090E00E94D70BED
:10139000B9010CC08F2D90E0982F88270197622FFC
:1013A00070E00E948D0B02C060E070E0F8018C815B
:1013B0009D81AF01401B510B4817590740F44081F4
:1013C000469FC001479F900D11249193F0CFFF825B
:1013D000DF91CF911F910F91FF900895CF93DF93ED
:1013E00000D000D0CDB7DEB79B01AC01611571050F
:1013F0008105910569F069833A834B835C830E9480
:101400008C0D29813A814B815C810E94D70B03C0EE
:1014100060E070E0CB010F900F900F900F90DF9184
:10142000CF91089508950E94B90A0E94120A0E945D
:101430008F00C0E0D0E00E9450012097E1F30E94AD
:101440000000F9CF0C94AE0C1F920F920FB60F92C2
:1014500011242F933F938F939F93AF93BF938091CA
:10146000500390915103A0915203B09153033091D6
:101470004F0323E0230F2D3720F40196A11DB11D4A
:1014800005C026E8230F0296A11DB11D20934F032E
:101490008093500390935103A0935203B09353034E
:1014A0008091540390915503A0915603B091570336
:1014B0000196A11DB11D8093540390935503A093F1
:1014C0005603B0935703BF91AF919F918F913F9176
:1014D0002F910F900FBE0F901F9018953FB7F89463
:1014E0008091540390915503A0915603B0915703F6
:1014F00026B5A89B05C02F3F19F00196A11DB11D6F
:101500003FBF6627782F892F9A2F620F711D811D8B
:10151000911D42E0660F771F881F991F4A95D1F7EA
:101520000895CF92DF92EF92FF92CF93DF936B01FA
:101530007C010E946E0AEB01C114D104E104F104A4
:1015400089F00E948C0B0E946E0A6C1B7D0B683E1A
:10155000734090F381E0C81AD108E108F108C8513E
:10156000DC4FEACFDF91CF91FF90EF90DF90CF90EB
:101570000895789484B5826084BD84B5816084BD0B
:1015800085B5826085BD85B5816085BDEEE6F0E0FC
:10159000808181608083E1E8F0E010828081826058
:1015A0008083808181608083E0E8F0E080818160D9
:1015B0008083E1EBF0E0808184608083E0EBF0E009
:1015C000808181608083EAE7F0E0808184608083AD
:1015D0008081826080838081816080838081806857
:1015E00080831092C1000895833081F028F4813007
:1015F00099F08230A1F008958730A9F08830B9F0D1
:101600008430D1F4809180008F7D03C08091800070
:101610008F7780938000089584B58F7702C084B55A
:101620008F7D84BD08958091B0008F7703C0809135
:10163000B0008F7D8093B0000895CF93DF9390E04A
:10164000FC01E657FF4F2491FC01E256FF4F8491C5
:10165000882349F190E0880F991FFC01E454FF4F63
:10166000A591B4918E549F4FFC01C591D4919FB721
:10167000611108C0F8948C91209582238C93888105
:1016800082230AC0623051F4F8948C91322F309545
:1016900083238C938881822B888304C0F8948C9157
:1016A000822B8C939FBFDF91CF9108950F931F934F
:1016B000CF93DF931F92CDB7DEB7282F30E0F9012B
:1016C000EA58FF4F8491F901E657FF4F1491F90151
:1016D000E256FF4F04910023C9F0882321F069836B
:1016E0000E94F40A6981E02FF0E0EE0FFF1FEE5434
:1016F000FF4FA591B4919FB7F8948C91611103C0ED
:101700001095812301C0812B8C939FBF0F90DF9197
:10171000CF911F910F9108950895AA1BBB1B51E112
:1017200007C0AA1FBB1FA617B70710F0A61BB70B51
:10173000881F991F5A95A9F780959095BC01CD01F6
:10174000089597FB072E16F4009407D077FD09D073
:101750000E948D0B07FC05D03EF4909581959F4F1C
:101760000895709561957F4F0895A1E21A2EAA1BE6
:10177000BB1BFD010DC0AA1FBB1FEE1FFF1FA21741
:10178000B307E407F50720F0A21BB30BE40BF50B3E
:10179000661F771F881F991F1A9469F760957095C7
:1017A000809590959B01AC01BD01CF010895052E58
:1017B00097FB1EF400940E94EE0B57FD07D00E9489
:1017C000B50B07FC03D04EF40C94EE0B50954095EE
:1017D000309521953F4F4F4F5F4F089590958095DD
:1017E000709561957F4F8F4F9F4F0895EE0FFF1FAC
:1017F0000590F491E02D09940E94070CA59F900D8F
:10180000B49F900DA49F800D911D11240895A29F57
:10181000B001B39FC001A39F700D811D1124911DC4
:10182000B29F700D811D1124911D0895CF93DF93F8
:101830008230910510F482E090E0E0915A03F0913B
:101840005B0320E030E0A0E0B0E0309739F1408168
:10185000518148175907B8F04817590771F4828128
:101860009381109729F013969C938E9312972CC016
:1018700090935B0380935A0327C02115310531F003
:101880004217530718F0A901DB0101C0EF019A01CB
:10189000BD01DF010280F381E02DD7CF2115310595
:1018A000F9F0281B390B2430310580F48A819B81A3
:1018B0006115710521F0FB019383828304C090932D
:1018C0005B0380935A03FE01329644C0FE01E20F8F
:1018D000F31F8193919322503109398328833AC0B1
:1018E0002091580330915903232B41F42091020198
:1018F0003091030130935903209358032091000144
:10190000309101012115310541F42DB73EB74091C9
:10191000040150910501241B350BE0915803F0910F
:101920005903E217F307A0F42E1B3F0B28173907C2
:1019300078F0AC014E5F5F4F2417350748F04E0F2B
:101940005F1F50935903409358038193919302C0B2
:10195000E0E0F0E0CF01DF91CF910895CF93DF93E6
:10196000009709F487C0FC01329713821282C0915C
:101970005A03D0915B03209781F420813181280F95
:10198000391F80915803909159038217930779F575
:10199000F0935903E09358036DC0DE0120E030E07E
:1019A000AE17BF0750F412964D915C9113979D01AD
:1019B0004115510509F1DA01F3CFB383A2834081C8
:1019C0005181840F951F8A179B0771F48D919C910B
:1019D0001197840F951F02969183808312968D91A3
:1019E0009C911397938382832115310529F4F093F9
:1019F0005B03E0935A033EC0D9011396FC93EE9328
:101A000012974D915D91A40FB51FEA17FB0779F46A
:101A100080819181840F951F0296D90111969C9324
:101A20008E938281938113969C938E931297E0E01C
:101A3000F0E08A819B81009719F0FE01EC01F9CF5B
:101A4000CE01029628813981820F931F209158037D
:101A5000309159032817390769F4309729F4109207
:101A60005B0310925A0302C013821282D09359036F
:101A7000C0935803DF91CF9108958F929F92AF92B8
:101A8000BF92CF92DF92EF92FF92CF93DF93EC0160
:101A9000688179818A819B81611571058105910534
:101AA00021F464E279ED8BE597E02DE133EF41E03D
:101AB00050E00E94D70B49015A019B01AC01A7EAF3
:101AC000B1E40E94FC0B6B017C01ACEEB4EFA5010C
:101AD00094010E94A40DC60ED71EE81EF91EF7FE43
:101AE00006C081E0C81AD108E10880E8F80AC88277
:101AF000D982EA82FB82C701B6019F77DF91CF913D
:101B0000FF90EF90DF90CF90BF90AF909F908F901D
:101B100008950E943D0D089586E091E00E943D0DDC
:101B200008956093060170930701809308019093D4
:101B300009010895DC0101C06D9341505040E0F768
:101B40000895B7FF0C94FC0B0E94FC0B821B930BB7
:101B5000089510E0C8ECD0E004C0FE010E94F80B2C
:0C1B60002296CA3CD107C9F7F894FFCFC9
:101B6C0000005C0380000100000019000000000070
:041B7C00E802F00289
:00000001FF
