:100000000C946F000C9497000C9497000C9497003C
:100010000C9497000C9497000C9497000C94970004
:100020000C9497000C9497000C9497000C949700F4
:100030000C9497000C9497000C9497000C949700E4
:100040000C9415080C9497000C9497000C9497004E
:100050000C9497000C9497000C9497000C949700C4
:100060000C9497000C949700BF00DA00C800D100F0
:10007000DA00E300EA009301AB01B501B801BB016E
:10008000C501C801D201D501D80100000008000255
:10009000010000030407000000000000000001024E
:1000A0000408102040800102040810200102040806
:1000B00010200404040404040404020202020202E4
:1000C00003030303030300000000250028002B00A6
:1000D00000000000240027002A002B015B011124EE
:1000E0001FBECFEFD8E0DEBFCDBF11E0A0E0B1E092
:1000F000EEE4F7E102C005900D92A831B107D9F7FF
:1001000021E0A8E1B1E001C01D92A636B207E1F7F7
:1001100010E0CCEDD0E004C02297FE010E94E90976
:10012000CA3DD107C9F70E9404080C949A0B0C949D
:10013000000010921901109218016FEF82E491E013
:100140000E949E0782E491E00E94380582E491E0DB
:100150000C94BC05E0910A01F0910B013197E73056
:10016000F10520F4EC5CFF4F0C94E7096091180155
:10017000709119018AE191E00E945D0333C06091A2
:100180001801709119018AE191E00E9436022AC09B
:1001900060911801709119018AE191E00E94B00309
:1001A00021C060911801709119018AE191E00E94CB
:1001B000AA0418C060911801709119018AE191E0B8
:1001C0000E9402030FC066E070E08AE191E00E94A5
:1001D000CC0208C060911801709119018AE191E088
:1001E0000E941D048091180190911901892B79F4C6
:1001F00080910A0190910B01019690930B018093DD
:100200000A01089721F410920B0110920A01089537
:10021000809118019091190120910C0130910D01EC
:10022000820F931F803127E292072CF490931901DB
:100230008093180104C010921901109218010E94B5
:10024000AA0060910C0170910D01882777FD8095BF
:10025000982F0C948208CF93DF93CDB7DEB76597C4
:100260000FB6F894DEBF0FBECDBF22E530E046E00A
:1002700063E170E082E491E00E94B00685E1E2E48F
:10028000F1E0DE01119601900D928A95E1F7BE0131
:100290006F5F7F4F8AE191E00E940802CE010196D4
:1002A0000E94240565960FB6F894DEBF0FBECDBF41
:1002B000DF91CF9108958AE191E00E94630182E489
:1002C00091E00C94240524E131E0FC01318320838A
:1002D00043960C942405CF93DF93EC010E946301B5
:1002E000CE01DF91CF910C941308CF92DF92EF9261
:1002F000FF92CF93DF9369017A0161507109EC019C
:1003000063966A30710528F4655C7F4FFB010C949D
:10031000E70960E070E0CE010E942C07A70196017A
:1003200061E070E04EC062E070E0CE010E942C07F8
:10033000A701960163E070E0CE010E942C07A7019F
:10034000960164E070E0CE010E942C07A70196019F
:1003500065E070E036C066E070E0CE010E942C07D8
:10036000A701960167E070E02CC068E070E029C04A
:1003700069E070E026C06AE070E0CE010E942C07C0
:10038000A70196016BE070E01CC06CE070E019C042
:100390006DE070E0CE010E942C07A70196016EE08F
:1003A00070E00FC06FE070E00CC060E170E009C069
:1003B00061E170E0CE010E942C07A701960162E185
:1003C00070E0CE01DF91CF91FF90EF90DF90CF9062
:1003D0000C942C07862F40E060E00C949107CF939B
:1003E000DF93EC0118861A8619861E861D866FEF2C
:1003F00070E00E94EA016F87788B898B9A8BCE011F
:1004000043960E949A079B838A83DF91CF91089538
:10041000EF92FF920F931F93CF93DF93EC017B0139
:1004200084E191E09983888381E090E09D838C83CF
:100430001F821E828BE090E09C878B871E861D8624
:100440008E010D5E1F4FC8010E940D0585E1F70169
:10045000D80101900D928A95E1F7CE01DF91CF91FD
:100460001F910F91FF90EF900C94EF01CF92DF92CC
:10047000EF92FF920F931F93CF93DF93EC01809144
:1004800057019091580120910E0130910F01820F78
:10049000931F90935801809357018F3F910569F006
:1004A00064F080EC9FEF90930F0180930E018FEF2B
:1004B00090E090935801809357018091570190915B
:1004C000580197FF0AC088E190E090930F01809354
:1004D0000E011092580110925701C12CD12CCE015F
:1004E00043967C018B859C85C816D906D4F400E020
:1004F00010E0C7010E949A070817190770F440E03E
:1005000060E080E00E9491079B01AC01B801C70147
:100510000E942C070F5F1F4FECCF9FEFC91AD90A1B
:10052000E1CF6091570170915801CE010E94EA011C
:100530009B01AC0161E070E0CE010E9475018885ED
:1005400091E089278887C701DF91CF911F910F9193
:10055000FF90EF90DF90CF900C94BC0560956535CF
:1005600038F4862F880F860F482F60E0809512C0E0
:100570006A3A48F48BEA860F682F660F680F462F99
:10058000409580E007C06A5A862F880F860F682F33
:10059000609540E00C949107EF92FF920F931F93A8
:1005A000CF93DF93EC0189859A85680F791F6F3FA0
:1005B000710509F01CF47A87698702C01A861986CA
:1005C00000E010E07E0183E1E80EF11CC7010E940B
:1005D0009A070817190768F46985CE010E94AE02D0
:1005E0009B01AC01B801C7010E942C070F5F1F4F90
:1005F000EDCFC701DF91CF911F910F91FF90EF9049
:100600000C94BC059F92AF92BF92CF92DF92EF9273
:10061000FF920F931F93CF93DF93EC0189859A8507
:1006200004968F3F910509F01CF49A87898702C0D0
:100630001A861986C12CD12CE12CF12C8E010D5E6D
:100640001F4F83E0A82EB12CC8010E949A07E8161C
:10065000F906D8F49984C8010E949A07BC01C60122
:100660000E947E09CB01B5010E947E09690DCE0171
:100670000E94AE029B01AC01B701C8010E942C0789
:100680008FEFE81AF80AD394DFCFC801DF91CF913A
:100690001F910F91FF90EF90DF90CF90BF90AF90A0
:1006A0009F900C94BC05625071096430710510F084
:1006B0006CE901C060E00C94AE02EF92FF920F93E0
:1006C0001F93CF93DF93EC01CB016BE470E00E94AA
:1006D0009209892BF1F50D851E857E0183E1E80ED7
:1006E000F11CC7010E949A070817190729F41E86F2
:1006F0001D86CE010E94EF0100E010E0C7010E94BC
:100700009A072D853E8508171907B0F402171307BD
:100710002CF4B801CE010E94530305C040E060E014
:1007200080E00E9491079B01AC01B801C7010E94C3
:100730002C070F5F1F4FE2CF2F5F3F4F3E872D8764
:10074000C701DF91CF911F910F91FF90EF900C9413
:10075000BC05DF91CF911F910F91FF90EF9008950D
:10076000CF92DF92EF92FF920F93CF93DF93EC0142
:10077000CB0164E670E00E949209892B09F055C014
:10078000CD84DE847E0183E1E80EF11CC7010E9466
:100790009A07C816D906C1F41E861D864F8558894A
:1007A00069897A89405F5F4F6F4F7F4F4F87588BC2
:1007B000698B7A8B4F3F51056105710529F020F057
:1007C0001F86188A198A1A8AC12CD12CC7010E9447
:1007D0009A072D853E85C816D906C8F42C153D0507
:1007E0005CF06F85CE010E94AE029B01AC01B601A8
:1007F000C7010E942C0707C000E020E040E0B601DE
:10080000C7010E94D8068FEFC81AD80ADFCF2F5F22
:100810003F4F3E872D87C701DF91CF910F91FF900A
:10082000EF90DF90CF900C94BC05DF91CF910F91AA
:10083000FF90EF90DF90CF900895CF92DF92EF92EC
:10084000FF920F93CF93DF93EC01CB0164E670E04E
:100850000E949209892B09F067C07E0183E1E80EAE
:10086000F11CC7010E949A079695879501962D85E0
:100870003E8528173907C1F41E861D864F85588985
:1008800069897A89405F5F4F6F4F7F4F4F87588BE1
:10089000698B7A8B4F3F51056105710529F020F076
:1008A0001F86188A198A1A8AC12CD12CC7010E9466
:1008B0009A072D853E85C816D90670F42C153D057E
:1008C000CCF4C7010E949A072D853E85821B930BAD
:1008D000C816D90678F420C02F5F3F4F3E872D877A
:1008E000C701DF91CF910F91FF90EF90DF90CF90F4
:1008F0000C94BC056C2D660F660F8F85680FCE01BA
:100900000E94AE029B01AC01B601C7010E942C07F8
:100910008FEFC81AD80ACACF00E020E040E0B60145
:10092000C7010E94D806F4CFDF91CF910F91FF90BD
:10093000EF90DF90CF900895CF93DF93EC0160E0CC
:1009400071E080E090E00E94DF07CE01DF91CF915F
:100950000C94AE02CF92DF92EF92FF920F93CF935F
:10096000DF93EC01CB0162E370E00E949209892BD6
:1009700009F04BC0CD84DE847E0183E1E80EF11CDA
:10098000C7010E949A07C816D90659F41E861D860B
:100990006FEF70E0CE010E949C046F87788B898B8B
:1009A0009A8BC12CD12CC7010E949A072D853E85B8
:1009B000C816D906E0F4C216D30629F02150310931
:1009C000C216D30649F42F85388949895A89B60158
:1009D000C7010E942C0707C000E020E040E0B601FC
:1009E000C7010E94D8068FEFC81AD80ADCCF2F5F44
:1009F0003F4F3E872D87C701DF91CF910F91FF9029
:100A0000EF90DF90CF900C94BC05DF91CF910F91C8
:100A1000FF90EF90DF90CF900895FC0181E08083FC
:100A2000118213821282158214829FEF968317829D
:100A3000118610868287138692E0948785871686B2
:100A40001786108A118A0895CF93DF93EC01888569
:100A50009985009711F00E949F0A8E8187FD05C03D
:100A600060E0DF91CF910C940E09DF91CF91089552
:100A7000CF93DF93EC018E8187FD07C061E00E9478
:100A80000E0960E08E810E94470981E08983DF9131
:100A9000CF910895EF92FF920F931F93CF93DF931F
:100AA000EC017B0188859985009711F00E949F0ACF
:100AB0009D858A85981303C083E090E002C084E09E
:100AC00090E08E9D80018F9D100D9E9D100D112434
:100AD0001D830C83C8010E94070A998788870097A5
:100AE00041F0A80160E070E00E948B0BFB82EA827B
:100AF00004C01D821C821B821A82DF91CF911F913C
:100B00000F91FF90EF900895FC0121E0958582857B
:100B1000981320E0CB0136E0969587953A95E1F75A
:100B2000482F43704587CB0154E0969587955A9599
:100B3000E1F7382F33703287CB01969587959695DC
:100B4000879583708387862F8370848781E06F3FCA
:100B5000710511F008F080E0808380859185892BF4
:100B600051F091E0431390E0921729F06281738174
:100B7000CF010C944A050895CF92DF92EF92FF9235
:100B80000F931F93CF93DF93CDB7DEB729970FB69F
:100B9000F894DEBF0FBECDBF8C01DC0118968D919D
:100BA0009C911997892B09F49AC00E945F08F8015B
:100BB000C684D784E088F1886C197D098E099F0965
:100BC000623371058105910580F3F89484819581E4
:100BD0009A838983A085B1857D01EFEFEE1AFE0A25
:100BE0008C918987D8019C9152960D90BC91A02D33
:100BF000F8018489992309F42EC09C91982B988739
:100C00009C91809589238F838F818E8388E08D834B
:100C100058856F8149853D812E8189819A81F701AF
:100C20005C9347FD252F3A952C93262F39F0441FCE
:100C300000C000006C93000000C0F2CF38E041918A
:100C40006C930000019761F7F801B38BA28B498781
:100C50003D832E8338C09C91982B98879C918095DA
:100C600089238F838F818C8388E08B8358856F8164
:100C700049853B812C8189819A81F7015C9347FDED
:100C8000252F00C000C02C9300C000C000C000C0D1
:100C900000C06C930000262F3A9541F0441F0000DD
:100CA00000C000C000C000C000C0E8CF38E04191E3
:100CB00000C06C9300C0019709F7F801B38BA28BB9
:100CC00049873B832C839A83898378940E945F08A9
:100CD000D8011E966D937D938D939C935197299681
:100CE0000FB6F894DEBF0FBECDBFDF91CF911F913D
:100CF0000F91FF90EF90DF90CF9008951F93CF93C7
:100D0000DF93EC01162F8981882331F08E8187FDD6
:100D100003C060E00E940E091E838981882341F090
:100D200061E0812F0E940E0960E0812F0E94470937
:100D3000812F90E0FC01EE54FF4FE491F0E0EE0FC4
:100D4000FF1FEA53FF4F259134913B8B2A8BFC0107
:100D5000E256FF4F84918C8BDF91CF911F910895C4
:100D6000EF92FF920F931F93CF93DF931F92CDB714
:100D7000DEB77C018B01FC0111821782118610867F
:100D800016861786108A118AB90149830E94840544
:100D9000B801C7010E944A054981642FC7010F901D
:100DA000DF91CF911F910F91FF90EF900C947E06F1
:100DB0000F931F93CF93DF93DC0112968D919C913B
:100DC00013976817790708F042C017968C91179708
:100DD000882361F0489FA0011124452F289F90018E
:100DE0001124232F089F80011124012F1D963C916F
:100DF0001D971A965C911A9718968D919C91199748
:100E0000FB01351307C0EE0FFF1FE60FF71FE80FBA
:100E1000F91F0AC0EE0FFF1FEE0FFF1FE80FF91FAB
:100E2000EF01C30FD11D18821A968C911A97EF010A
:100E3000C80FD11D48831B968C911B97EF01C80FDB
:100E4000D11D28831C968C91E80FF11D0083DF9142
:100E5000CF911F910F910895CF92DF92EF92FF9261
:100E60000F931F93CF93DF93FC01828193816817C7
:100E7000790708F04DC0CA01AA27BB27182FC32E37
:100E8000D42EE52EFF24DC2DC22F0781002361F034
:100E9000809FC0011124192FC09E60011124DD2DF7
:100EA000209FC0011124C92FF5848285A085B185BA
:100EB000F81208C0CB01880F991F860F971F8A0F61
:100EC0009B1F17C0CB01880F991F880F991F8A0F8E
:100ED0009B1F452F552766277727DC01AF0DB11DD6
:100EE000002329F0409F90011124232F01C0242FBB
:100EF0002C932285DC01A20FB11D1C932385DC01FC
:100F0000A20FB11DDC932485FC01E20FF11DC0830B
:100F1000DF91CF911F910F91FF90EF90DF90CF90D5
:100F20000895962F50E060E070E0592B682BCB01BC
:100F3000BA010895FC01828193810895FF920F9375
:100F40001F93CF93DF93EC01FF24F394F60E2F81D0
:100F5000F21679F1088519852150B9F06F3F59F4DF
:100F600030E040E050E06FEF7FEF80E090E00E94E3
:100F7000C809B9010CC08F2D90E0982F88270197E0
:100F8000622F70E00E947E0902C060E070E0F8010C
:100F90008C819D81AF01401B510B4817590740F4CC
:100FA0004081469FC001479F900D11249193F0CF3F
:100FB000FF82DF91CF911F910F91FF900895CF9302
:100FC000DF9300D000D0CDB7DEB79B01AC01611537
:100FD00071058105910569F069833A834B835C83D0
:100FE0000E947D0B29813A814B815C810E94C80956
:100FF00003C060E070E0CB010F900F900F900F9056
:10100000DF91CF91089508950E94AA080E940308D5
:101010000E949900C0E0D0E00E9408012097E1F30F
:101020000E940000F9CF0C949F0A1F920F920FB6F6
:101030000F9211242F933F938F939F93AF93BF935E
:1010400080915A0190915B01A0915C01B0915D018A
:101050003091590123E0230F2D3720F40196A11D73
:10106000B11D05C026E8230F0296A11DB11D2093D6
:10107000590180935A0190935B01A0935C01B09356
:101080005D0180915E0190915F01A0916001B0913E
:1010900061010196A11DB11D80935E0190935F01D6
:1010A000A0936001B0936101BF91AF919F918F9127
:1010B0003F912F910F900FBE0F901F9018953FB743
:1010C000F89480915E0190915F01A0916001B091D0
:1010D000610126B5A89B05C02F3F19F00196A11DFF
:1010E000B11D3FBF6627782F892F9A2F620F711D80
:1010F000811D911D42E0660F771F881F991F4A9539
:10110000D1F70895CF92DF92EF92FF92CF93DF93C2
:101110006B017C010E945F08EB01C114D104E10462
:10112000F10489F00E947D090E945F086C1B7D0B11
:10113000683E734090F381E0C81AD108E108F108D5
:10114000C851DC4FEACFDF91CF91FF90EF90DF9055
:10115000CF900895789484B5826084BD84B5816011
:1011600084BD85B5826085BD85B5816085BDEEE6AF
:10117000F0E0808181608083E1E8F0E0108280818E
:1011800082608083808181608083E0E8F0E08081FC
:1011900081608083E1EBF0E0808184608083E0EB1C
:1011A000F0E0808181608083EAE7F0E08081846004
:1011B0008083808182608083808181608083808160
:1011C000806880831092C1000895833081F028F4F4
:1011D000813099F08230A1F008958730A9F08830ED
:1011E000B9F08430D1F4809180008F7D03C080916C
:1011F00080008F7780938000089584B58F7702C038
:1012000084B58F7D84BD08958091B0008F7703C031
:101210008091B0008F7D8093B0000895CF93DF93CD
:1012200090E0FC01E256FF4F2491FC01EE54FF4F89
:101230008491882349F190E0880F991FFC01E053C5
:10124000FF4FA591B4918A539F4FFC01C591D49152
:101250009FB7611108C0F8948C91209582238C93DC
:10126000888182230AC0623051F4F8948C91322F25
:10127000309583238C938881822B888304C0F894D3
:101280008C91822B8C939FBFDF91CF9108950F9308
:101290001F93CF93DF931F92CDB7DEB7282F30E097
:1012A000F901E657FF4F8491F901E256FF4F14917F
:1012B000F901EE54FF4F04910023C9F0882321F077
:1012C00069830E94E5086981E02FF0E0EE0FFF1FBF
:1012D000EA53FF4FA591B4919FB7F8948C91611197
:1012E00003C01095812301C0812B8C939FBF0F9069
:1012F000DF91CF911F910F9108950895AA1BBB1BF9
:1013000051E107C0AA1FBB1FA617B70710F0A61B05
:10131000B70B881F991F5A95A9F780959095BC0126
:10132000CD01089597FB072E16F4009407D077FDA2
:1013300009D00E947E0907FC05D03EF49095819566
:101340009F4F0895709561957F4F0895A1E21A2EE1
:10135000AA1BBB1BFD010DC0AA1FBB1FEE1FFF1F59
:10136000A217B307E407F50720F0A21BB30BE40BA9
:10137000F50B661F771F881F991F1A9469F76095F0
:101380007095809590959B01AC01BD01CF010895AA
:10139000052E97FB1EF400940E94DF0957FD07D02D
:1013A0000E94A60907FC03D04EF40C94DF09509567
:1013B0004095309521953F4F4F4F5F4F0895909541
:1013C0008095709561957F4F8F4F9F4F0895EE0FD9
:1013D000FF1F0590F491E02D09940E94F809A59F44
:1013E000900DB49F900DA49F800D911D1124089520
:1013F000A29FB001B39FC001A39F700D811D112456
:10140000911DB29F700D811D1124911D0895CF93E0
:10141000DF938230910510F482E090E0E091640166
:10142000F091650120E030E0A0E0B0E0309739F1C4
:101430004081518148175907B8F04817590771F48E
:1014400082819381109729F013969C938E93129723
:101450002CC0909365018093640127C0211531054C
:1014600031F04217530718F0A901DB0101C0EF0169
:101470009A01BD01DF010280F381E02DD7CF211554
:101480003105F9F0281B390B2430310580F48A81AD
:101490009B816115710521F0FB019383828304C058
:1014A0009093650180936401FE01329644C0FE0171
:1014B000E20FF31F819391932250310939832883DE
:1014C0003AC02091620130916301232B41F42091B5
:1014D0000201309103013093630120936201209156
:1014E0000001309101012115310541F42DB73EB7BE
:1014F0004091040150910501241B350BE0916201DC
:10150000F0916301E217F307A0F42E1B3F0B28179D
:10151000390778F0AC014E5F5F4F2417350748F06C
:101520004E0F5F1F5093630140936201819391932B
:1015300002C0E0E0F0E0CF01DF91CF910895CF93BA
:10154000DF93009709F487C0FC013297138212825F
:10155000C0916401D0916501209781F4208131818F
:10156000280F391F809162019091630182179307C0
:1015700079F5F0936301E09362016DC0DE0120E034
:1015800030E0AE17BF0750F412964D915C9113975F
:101590009D014115510509F1DA01F3CFB383A2830F
:1015A00040815181840F951F8A179B0771F48D919B
:1015B0009C911197840F951F0296918380831296B8
:1015C0008D919C911397938382832115310529F482
:1015D000F0936501E09364013EC0D9011396FC933A
:1015E000EE9312974D915D91A40FB51FEA17FB077B
:1015F00079F480819181840F951F0296D90111960B
:101600009C938E938281938113969C938E931297D1
:10161000E0E0F0E08A819B81009719F0FE01EC0187
:10162000F9CFCE01029628813981820F931F209134
:101630006201309163012817390769F4309729F462
:10164000109265011092640102C013821282D0933D
:101650006301C0936201DF91CF9108958F929F92B1
:10166000AF92BF92CF92DF92EF92FF92CF93DF9330
:10167000EC01688179818A819B8161157105810501
:10168000910521F464E279ED8BE597E02DE133EFEC
:1016900041E050E00E94C80949015A019B01AC0198
:1016A000A7EAB1E40E94ED096B017C01ACEEB4EF56
:1016B000A50194010E94950BC60ED71EE81EF91EC7
:1016C000F7FE06C081E0C81AD108E10880E8F80AF0
:1016D000C882D982EA82FB82C701B6019F77DF9177
:1016E000CF91FF90EF90DF90CF90BF90AF909F9001
:1016F0008F9008950E942E0B089586E091E00E943D
:101700002E0B0895609306017093070180930801E2
:10171000909309010895DC0101C06D934150504040
:10172000E0F70895B7FF0C94ED090E94ED09821BC4
:10173000930B089510E0CCEDD0E004C0FE010E94B0
:0E174000E9092296CE3DD107C9F7F894FFCFF4
:10174E00000066018000010000000700190018006B
:08175E000000000063016B01B3
:00000001FF
